{
  "contractName": "ZombieHelper",
  "abi": [
    {
      "constant": false,
      "inputs": [
        {
          "name": "_zombieId",
          "type": "uint256"
        },
        {
          "name": "_kittyId",
          "type": "uint256"
        }
      ],
      "name": "feedOnKitty",
      "outputs": [],
      "payable": false,
      "stateMutability": "nonpayable",
      "type": "function"
    },
    {
      "constant": true,
      "inputs": [
        {
          "name": "",
          "type": "uint256"
        }
      ],
      "name": "zombies",
      "outputs": [
        {
          "name": "name",
          "type": "string"
        },
        {
          "name": "dna",
          "type": "uint256"
        },
        {
          "name": "level",
          "type": "uint32"
        },
        {
          "name": "readyTime",
          "type": "uint32"
        },
        {
          "name": "winCount",
          "type": "uint16"
        },
        {
          "name": "lossCount",
          "type": "uint16"
        }
      ],
      "payable": false,
      "stateMutability": "view",
      "type": "function"
    },
    {
      "constant": true,
      "inputs": [
        {
          "name": "",
          "type": "uint256"
        }
      ],
      "name": "zombieToOwner",
      "outputs": [
        {
          "name": "",
          "type": "address"
        }
      ],
      "payable": false,
      "stateMutability": "view",
      "type": "function"
    },
    {
      "constant": false,
      "inputs": [
        {
          "name": "_address",
          "type": "address"
        }
      ],
      "name": "setKittyContractAddress",
      "outputs": [],
      "payable": false,
      "stateMutability": "nonpayable",
      "type": "function"
    },
    {
      "constant": false,
      "inputs": [],
      "name": "renounceOwnership",
      "outputs": [],
      "payable": false,
      "stateMutability": "nonpayable",
      "type": "function"
    },
    {
      "constant": false,
      "inputs": [
        {
          "name": "_name",
          "type": "string"
        }
      ],
      "name": "createRandomZombie",
      "outputs": [],
      "payable": false,
      "stateMutability": "nonpayable",
      "type": "function"
    },
    {
      "constant": true,
      "inputs": [],
      "name": "owner",
      "outputs": [
        {
          "name": "",
          "type": "address"
        }
      ],
      "payable": false,
      "stateMutability": "view",
      "type": "function"
    },
    {
      "constant": true,
      "inputs": [],
      "name": "isOwner",
      "outputs": [
        {
          "name": "",
          "type": "bool"
        }
      ],
      "payable": false,
      "stateMutability": "view",
      "type": "function"
    },
    {
      "constant": false,
      "inputs": [
        {
          "name": "newOwner",
          "type": "address"
        }
      ],
      "name": "transferOwnership",
      "outputs": [],
      "payable": false,
      "stateMutability": "nonpayable",
      "type": "function"
    },
    {
      "anonymous": false,
      "inputs": [
        {
          "indexed": false,
          "name": "zombieId",
          "type": "uint256"
        },
        {
          "indexed": false,
          "name": "name",
          "type": "string"
        },
        {
          "indexed": false,
          "name": "dna",
          "type": "uint256"
        }
      ],
      "name": "NewZombie",
      "type": "event"
    },
    {
      "anonymous": false,
      "inputs": [
        {
          "indexed": true,
          "name": "previousOwner",
          "type": "address"
        },
        {
          "indexed": true,
          "name": "newOwner",
          "type": "address"
        }
      ],
      "name": "OwnershipTransferred",
      "type": "event"
    },
    {
      "constant": false,
      "inputs": [],
      "name": "withdraw",
      "outputs": [],
      "payable": false,
      "stateMutability": "nonpayable",
      "type": "function"
    },
    {
      "constant": false,
      "inputs": [
        {
          "name": "_fee",
          "type": "uint256"
        }
      ],
      "name": "setLevelUpFee",
      "outputs": [],
      "payable": false,
      "stateMutability": "nonpayable",
      "type": "function"
    },
    {
      "constant": false,
      "inputs": [
        {
          "name": "_zombieId",
          "type": "uint256"
        }
      ],
      "name": "levelUp",
      "outputs": [],
      "payable": true,
      "stateMutability": "payable",
      "type": "function"
    },
    {
      "constant": false,
      "inputs": [
        {
          "name": "_zombieId",
          "type": "uint256"
        },
        {
          "name": "_newName",
          "type": "string"
        }
      ],
      "name": "changeName",
      "outputs": [],
      "payable": false,
      "stateMutability": "nonpayable",
      "type": "function"
    },
    {
      "constant": false,
      "inputs": [
        {
          "name": "_zombieId",
          "type": "uint256"
        },
        {
          "name": "_newDna",
          "type": "uint256"
        }
      ],
      "name": "changeDna",
      "outputs": [],
      "payable": false,
      "stateMutability": "nonpayable",
      "type": "function"
    },
    {
      "constant": true,
      "inputs": [
        {
          "name": "_owner",
          "type": "address"
        }
      ],
      "name": "getZombiesByOwner",
      "outputs": [
        {
          "name": "",
          "type": "uint256[]"
        }
      ],
      "payable": false,
      "stateMutability": "view",
      "type": "function"
    }
  ],
  "bytecode": "0x60806040526010600155600154600a0a6002556201518060035566038d7ea4c68000600855336000806101000a81548173ffffffffffffffffffffffffffffffffffffffff021916908373ffffffffffffffffffffffffffffffffffffffff1602179055506000809054906101000a900473ffffffffffffffffffffffffffffffffffffffff1673ffffffffffffffffffffffffffffffffffffffff16600073ffffffffffffffffffffffffffffffffffffffff167f8be0079c531659141344cd1fd0a4f28419497f9722a3daafe3b4186f6b6457e060405160405180910390a36117f1806100ef6000396000f3fe6080604052600436106100db576000357c0100000000000000000000000000000000000000000000000000000000900463ffffffff1680630ce90ec2146100e057806317a7f4cc1461010e5780632052465e146101535780633ccfd60b146102525780634412e10414610269578063528b7b8f1461030f5780635f4623f11461038a5780635faf2880146103db578063715018a6146104205780637bff0a01146104375780638da5cb5b146104ff5780638f32d59b14610556578063c39cbef114610585578063ccf670f814610615578063f2fde38b14610650575b600080fd5b61010c600480360360208110156100f657600080fd5b81019080803590602001909291905050506106a1565b005b34801561011a57600080fd5b506101516004803603604081101561013157600080fd5b81019080803590602001909291908035906020019092919050505061073c565b005b34801561015f57600080fd5b5061018c6004803603602081101561017657600080fd5b81019080803590602001909291905050506108e3565b60405180806020018781526020018663ffffffff1663ffffffff1681526020018563ffffffff1663ffffffff1681526020018461ffff1661ffff1681526020018361ffff1661ffff168152602001828103825288818151815260200191508051906020019080838360005b838110156102125780820151818401526020810190506101f7565b50505050905090810190601f16801561023f5780820380516001836020036101000a031916815260200191505b5097505050505050505060405180910390f35b34801561025e57600080fd5b50610267610a02565b005b34801561027557600080fd5b506102b86004803603602081101561028c57600080fd5b81019080803573ffffffffffffffffffffffffffffffffffffffff169060200190929190505050610a24565b6040518080602001828103825283818151815260200191508051906020019060200280838360005b838110156102fb5780820151818401526020810190506102e0565b505050509050019250505060405180910390f35b34801561031b57600080fd5b506103486004803603602081101561033257600080fd5b8101908080359060200190929190505050610b55565b604051808273ffffffffffffffffffffffffffffffffffffffff1673ffffffffffffffffffffffffffffffffffffffff16815260200191505060405180910390f35b34801561039657600080fd5b506103d9600480360360208110156103ad57600080fd5b81019080803573ffffffffffffffffffffffffffffffffffffffff169060200190929190505050610b88565b005b3480156103e757600080fd5b5061041e600480360360408110156103fe57600080fd5b810190808035906020019092919080359060200190929190505050610bdf565b005b34801561042c57600080fd5b50610435610cc1565b005b34801561044357600080fd5b506104fd6004803603602081101561045a57600080fd5b810190808035906020019064010000000081111561047757600080fd5b82018360208201111561048957600080fd5b803590602001918460018302840111640100000000831117156104ab57600080fd5b91908080601f016020809104026020016040519081016040528093929190818152602001838380828437600081840152601f19601f820116905080830192505050505050509192919290505050610d93565b005b34801561050b57600080fd5b50610514610e0d565b604051808273ffffffffffffffffffffffffffffffffffffffff1673ffffffffffffffffffffffffffffffffffffffff16815260200191505060405180910390f35b34801561056257600080fd5b5061056b610e36565b604051808215151515815260200191505060405180910390f35b34801561059157600080fd5b50610613600480360360408110156105a857600080fd5b8101908080359060200190929190803590602001906401000000008111156105cf57600080fd5b8201836020820111156105e157600080fd5b8035906020019184600183028401116401000000008311171561060357600080fd5b9091929391929390505050610e8d565b005b34801561062157600080fd5b5061064e6004803603602081101561063857600080fd5b8101908080359060200190929190505050610f7b565b005b34801561065c57600080fd5b5061069f6004803603602081101561067357600080fd5b81019080803573ffffffffffffffffffffffffffffffffffffffff169060200190929190505050610f98565b005b600854341415156106b157600080fd5b6106fb60016004838154811015156106c557fe5b906000526020600020906003020160020160009054906101000a900463ffffffff1663ffffffff16610fb790919063ffffffff16565b60048281548110151561070a57fe5b906000526020600020906003020160020160006101000a81548163ffffffff021916908363ffffffff16021790555050565b6000600760009054906101000a900473ffffffffffffffffffffffffffffffffffffffff1673ffffffffffffffffffffffffffffffffffffffff1663e98b7f4d836040518263ffffffff167c0100000000000000000000000000000000000000000000000000000000028152600401808281526020019150506101406040518083038186803b1580156107ce57600080fd5b505afa1580156107e2573d6000803e3d6000fd5b505050506040513d6101408110156107f957600080fd5b8101908080519060200190929190805190602001909291908051906020019092919080519060200190929190805190602001909291908051906020019092919080519060200190929190805190602001909291908051906020019092919080519060200190929190505050909192939495969798509091929394959697509091929394959650909192939495509091929394509091929350909192509091509050809150506108de83826040805190810160405280600581526020017f6b69747479000000000000000000000000000000000000000000000000000000815250610fe1565b505050565b6004818154811015156108f257fe5b9060005260206000209060030201600091509050806000018054600181600116156101000203166002900480601f01602080910402602001604051908101604052809291908181526020018280546001816001161561010002031660029004801561099e5780601f106109735761010080835404028352916020019161099e565b820191906000526020600020905b81548152906001019060200180831161098157829003601f168201915b5050505050908060010154908060020160009054906101000a900463ffffffff16908060020160049054906101000a900463ffffffff16908060020160089054906101000a900461ffff169080600201600a9054906101000a900461ffff16905086565b610a0a610e36565b1515610a1557600080fd5b6000610a1f610e0d565b905050565b606080600660008473ffffffffffffffffffffffffffffffffffffffff1673ffffffffffffffffffffffffffffffffffffffff16815260200190815260200160002054604051908082528060200260200182016040528015610a955781602001602082028038833980820191505090505b509050600080905060008090505b600480549050811015610b4a578473ffffffffffffffffffffffffffffffffffffffff166005600083815260200190815260200160002060009054906101000a900473ffffffffffffffffffffffffffffffffffffffff1673ffffffffffffffffffffffffffffffffffffffff161415610b3d57808383815181101515610b2657fe5b906020019060200201818152505081806001019250505b8080600101915050610aa3565b508192505050919050565b60056020528060005260406000206000915054906101000a900473ffffffffffffffffffffffffffffffffffffffff1681565b610b90610e36565b1515610b9b57600080fd5b80600760006101000a81548173ffffffffffffffffffffffffffffffffffffffff021916908373ffffffffffffffffffffffffffffffffffffffff16021790555050565b60148281600482815481101515610bf257fe5b906000526020600020906003020160020160009054906101000a900463ffffffff1663ffffffff1610151515610c2757600080fd5b836005600082815260200190815260200160002060009054906101000a900473ffffffffffffffffffffffffffffffffffffffff1673ffffffffffffffffffffffffffffffffffffffff163373ffffffffffffffffffffffffffffffffffffffff16141515610c9557600080fd5b83600486815481101515610ca557fe5b9060005260206000209060030201600101819055505050505050565b610cc9610e36565b1515610cd457600080fd5b600073ffffffffffffffffffffffffffffffffffffffff166000809054906101000a900473ffffffffffffffffffffffffffffffffffffffff1673ffffffffffffffffffffffffffffffffffffffff167f8be0079c531659141344cd1fd0a4f28419497f9722a3daafe3b4186f6b6457e060405160405180910390a360008060006101000a81548173ffffffffffffffffffffffffffffffffffffffff021916908373ffffffffffffffffffffffffffffffffffffffff160217905550565b6000600660003373ffffffffffffffffffffffffffffffffffffffff1673ffffffffffffffffffffffffffffffffffffffff16815260200190815260200160002054141515610de157600080fd5b6000610dec826111d1565b9050606481811515610dfa57fe5b0681039050610e098282611264565b5050565b60008060009054906101000a900473ffffffffffffffffffffffffffffffffffffffff16905090565b60008060009054906101000a900473ffffffffffffffffffffffffffffffffffffffff1673ffffffffffffffffffffffffffffffffffffffff163373ffffffffffffffffffffffffffffffffffffffff1614905090565b60028381600482815481101515610ea057fe5b906000526020600020906003020160020160009054906101000a900463ffffffff1663ffffffff1610151515610ed557600080fd5b846005600082815260200190815260200160002060009054906101000a900473ffffffffffffffffffffffffffffffffffffffff1673ffffffffffffffffffffffffffffffffffffffff163373ffffffffffffffffffffffffffffffffffffffff16141515610f4357600080fd5b8484600488815481101515610f5457fe5b90600052602060002090600302016000019190610f729291906116a0565b50505050505050565b610f83610e36565b1515610f8e57600080fd5b8060088190555050565b610fa0610e36565b1515610fab57600080fd5b610fb481611537565b50565b60008082840190508363ffffffff168163ffffffff1610151515610fd757fe5b8091505092915050565b826005600082815260200190815260200160002060009054906101000a900473ffffffffffffffffffffffffffffffffffffffff1673ffffffffffffffffffffffffffffffffffffffff163373ffffffffffffffffffffffffffffffffffffffff1614151561104f57600080fd5b600060048581548110151561106057fe5b9060005260206000209060030201905061107981611631565b151561108457600080fd5b6002548481151561109157fe5b06935060006002858360010154018115156110a857fe5b04905060405160200180807f6b69747479000000000000000000000000000000000000000000000000000000815250600501905060405160208183030381529060405280519060200120846040516020018082805190602001908083835b60208310151561112b5780518252602082019150602081019050602083039250611106565b6001836020036101000a03801982511681845116808217855250505050505090500191505060405160208183030381529060405280519060200120141561118157606360648281151561117a57fe5b0682030190505b6111c06040805190810160405280600681526020017f4e6f4e616d65000000000000000000000000000000000000000000000000000081525082611264565b6111c982611658565b505050505050565b600080826040516020018082805190602001908083835b60208310151561120d57805182526020820191506020810190506020830392506111e8565b6001836020036101000a038019825116818451168082178552505050505050905001915050604051602081830303815290604052805190602001206001900490506002548181151561125b57fe5b06915050919050565b60006001600460c060405190810160405280868152602001858152602001600163ffffffff168152602001600354420163ffffffff168152602001600061ffff168152602001600061ffff168152509080600181540180825580915050906001820390600052602060002090600302016000909192909190915060008201518160000190805190602001906112fa929190611720565b506020820151816001015560408201518160020160006101000a81548163ffffffff021916908363ffffffff16021790555060608201518160020160046101000a81548163ffffffff021916908363ffffffff16021790555060808201518160020160086101000a81548161ffff021916908361ffff16021790555060a082015181600201600a6101000a81548161ffff021916908361ffff1602179055505050039050336005600083815260200190815260200160002060006101000a81548173ffffffffffffffffffffffffffffffffffffffff021916908373ffffffffffffffffffffffffffffffffffffffff1602179055506114436001600660003373ffffffffffffffffffffffffffffffffffffffff1673ffffffffffffffffffffffffffffffffffffffff1681526020019081526020016000205461168290919063ffffffff16565b600660003373ffffffffffffffffffffffffffffffffffffffff1673ffffffffffffffffffffffffffffffffffffffff168152602001908152602001600020819055507f88f026aacbbecc90c18411df4b1185fd8d9be2470f1962f192bf84a27d0704b78184846040518084815260200180602001838152602001828103825284818151815260200191508051906020019080838360005b838110156114f65780820151818401526020810190506114db565b50505050905090810190601f1680156115235780820380516001836020036101000a031916815260200191505b5094505050505060405180910390a1505050565b600073ffffffffffffffffffffffffffffffffffffffff168173ffffffffffffffffffffffffffffffffffffffff161415151561157357600080fd5b8073ffffffffffffffffffffffffffffffffffffffff166000809054906101000a900473ffffffffffffffffffffffffffffffffffffffff1673ffffffffffffffffffffffffffffffffffffffff167f8be0079c531659141344cd1fd0a4f28419497f9722a3daafe3b4186f6b6457e060405160405180910390a3806000806101000a81548173ffffffffffffffffffffffffffffffffffffffff021916908373ffffffffffffffffffffffffffffffffffffffff16021790555050565b6000428260020160049054906101000a900463ffffffff1663ffffffff1611159050919050565b60035442018160020160046101000a81548163ffffffff021916908363ffffffff16021790555050565b600080828401905083811015151561169657fe5b8091505092915050565b828054600181600116156101000203166002900490600052602060002090601f016020900481019282601f106116e157803560ff191683800117855561170f565b8280016001018555821561170f579182015b8281111561170e5782358255916020019190600101906116f3565b5b50905061171c91906117a0565b5090565b828054600181600116156101000203166002900490600052602060002090601f016020900481019282601f1061176157805160ff191683800117855561178f565b8280016001018555821561178f579182015b8281111561178e578251825591602001919060010190611773565b5b50905061179c91906117a0565b5090565b6117c291905b808211156117be5760008160009055506001016117a6565b5090565b9056fea165627a7a72305820b444af54e94b4311a0789bc2c9623e81af408501e1a85de5e90be90f39b2e4100029",
  "source": "pragma solidity >=0.5.0 <0.6.0;\r\n\r\nimport \"./zombiefeeding.sol\";\r\n\r\ncontract ZombieHelper is ZombieFeeding {\r\n\r\n  uint levelUpFee = 0.001 ether;\r\n\r\n  modifier aboveLevel(uint _level, uint _zombieId) {\r\n    require(zombies[_zombieId].level >= _level);\r\n    _;\r\n  }\r\n\r\n  function withdraw() external onlyOwner {\r\n    address _owner = owner();\r\n    // _owner.transfer(address(this).balance);\r\n  }\r\n\r\n  function setLevelUpFee(uint _fee) external onlyOwner {\r\n    levelUpFee = _fee;\r\n  }\r\n\r\n  function levelUp(uint _zombieId) external payable {\r\n    require(msg.value == levelUpFee);\r\n    zombies[_zombieId].level = zombies[_zombieId].level.add(1);\r\n  }\r\n\r\n  function changeName(uint _zombieId, string calldata _newName) external aboveLevel(2, _zombieId) onlyOwnerOf(_zombieId) {\r\n    zombies[_zombieId].name = _newName;\r\n  }\r\n\r\n  function changeDna(uint _zombieId, uint _newDna) external aboveLevel(20, _zombieId) onlyOwnerOf(_zombieId) {\r\n    zombies[_zombieId].dna = _newDna;\r\n  }\r\n\r\n  function getZombiesByOwner(address _owner) external view returns(uint[] memory) {\r\n    uint[] memory result = new uint[](ownerZombieCount[_owner]);\r\n    uint counter = 0;\r\n    for (uint i = 0; i < zombies.length; i++) {\r\n      if (zombieToOwner[i] == _owner) {\r\n        result[counter] = i;\r\n        counter++;\r\n      }\r\n    }\r\n    return result;\r\n  }\r\n\r\n}\r\n",
  "sourcePath": "D:\\Blockship\\cz\\CryptoZombies\\contracts\\zombiehelper.sol",
  "compiler": {
    "name": "solc",
    "version": "0.5.0+commit.1d4f565a.Emscripten.clang"
  },
  "schemaVersion": "3.4.3",
  "updatedAt": "2021-09-18T17:58:05.894Z",
  "devdoc": {
    "methods": {
      "isOwner()": {
        "return": "true if `msg.sender` is the owner of the contract.\r"
      },
      "owner()": {
        "return": "the address of the owner.\r"
      },
      "renounceOwnership()": {
        "details": "Allows the current owner to relinquish control of the contract.\r"
      },
      "transferOwnership(address)": {
        "details": "Allows the current owner to transfer control of the contract to a newOwner.\r",
        "params": {
          "newOwner": "The address to transfer ownership to.\r"
        }
      }
    }
  },
  "userdoc": {
    "methods": {
      "renounceOwnership()": {
        "notice": "Renouncing to ownership will leave the contract without an owner.\r It will not be possible to call the functions with the `onlyOwner`\r modifier anymore.\r"
      }
    }
  }
}